{
  "address": "0x72b012CacAa2Efd546c445A4F183EF2acaCf9B68",
  "abi": [
    {
      "inputs": [
        {
          "internalType": "address",
          "name": "_asset",
          "type": "address"
        }
      ],
      "stateMutability": "nonpayable",
      "type": "constructor"
    },
    {
      "inputs": [
        {
          "internalType": "address",
          "name": "owner",
          "type": "address"
        }
      ],
      "name": "OwnableInvalidOwner",
      "type": "error"
    },
    {
      "inputs": [
        {
          "internalType": "address",
          "name": "account",
          "type": "address"
        }
      ],
      "name": "OwnableUnauthorizedAccount",
      "type": "error"
    },
    {
      "anonymous": false,
      "inputs": [
        {
          "indexed": true,
          "internalType": "address",
          "name": "previousOwner",
          "type": "address"
        },
        {
          "indexed": true,
          "internalType": "address",
          "name": "newOwner",
          "type": "address"
        }
      ],
      "name": "OwnershipTransferred",
      "type": "event"
    },
    {
      "anonymous": false,
      "inputs": [
        {
          "indexed": true,
          "internalType": "address",
          "name": "user",
          "type": "address"
        },
        {
          "indexed": false,
          "internalType": "uint256",
          "name": "amount",
          "type": "uint256"
        },
        {
          "indexed": false,
          "internalType": "uint256",
          "name": "timestamp",
          "type": "uint256"
        }
      ],
      "name": "Supply",
      "type": "event"
    },
    {
      "anonymous": false,
      "inputs": [
        {
          "indexed": true,
          "internalType": "address",
          "name": "user",
          "type": "address"
        },
        {
          "indexed": false,
          "internalType": "uint256",
          "name": "amount",
          "type": "uint256"
        },
        {
          "indexed": false,
          "internalType": "uint256",
          "name": "timestamp",
          "type": "uint256"
        }
      ],
      "name": "Withdraw",
      "type": "event"
    },
    {
      "anonymous": false,
      "inputs": [
        {
          "indexed": false,
          "internalType": "uint256",
          "name": "amount",
          "type": "uint256"
        },
        {
          "indexed": false,
          "internalType": "uint256",
          "name": "timestamp",
          "type": "uint256"
        }
      ],
      "name": "YieldAdded",
      "type": "event"
    },
    {
      "inputs": [],
      "name": "accumulatedYield",
      "outputs": [
        {
          "internalType": "uint256",
          "name": "",
          "type": "uint256"
        }
      ],
      "stateMutability": "view",
      "type": "function"
    },
    {
      "inputs": [
        {
          "internalType": "uint256",
          "name": "amount",
          "type": "uint256"
        }
      ],
      "name": "adminAddYield",
      "outputs": [],
      "stateMutability": "nonpayable",
      "type": "function"
    },
    {
      "inputs": [],
      "name": "asset",
      "outputs": [
        {
          "internalType": "contract IERC20",
          "name": "",
          "type": "address"
        }
      ],
      "stateMutability": "view",
      "type": "function"
    },
    {
      "inputs": [],
      "name": "getAvailableYield",
      "outputs": [
        {
          "internalType": "uint256",
          "name": "",
          "type": "uint256"
        }
      ],
      "stateMutability": "view",
      "type": "function"
    },
    {
      "inputs": [],
      "name": "getTotalAssets",
      "outputs": [
        {
          "internalType": "uint256",
          "name": "",
          "type": "uint256"
        }
      ],
      "stateMutability": "view",
      "type": "function"
    },
    {
      "inputs": [
        {
          "internalType": "address",
          "name": "user",
          "type": "address"
        }
      ],
      "name": "getUserSupply",
      "outputs": [
        {
          "internalType": "uint256",
          "name": "",
          "type": "uint256"
        }
      ],
      "stateMutability": "view",
      "type": "function"
    },
    {
      "inputs": [
        {
          "internalType": "address",
          "name": "to",
          "type": "address"
        }
      ],
      "name": "harvestYield",
      "outputs": [
        {
          "internalType": "uint256",
          "name": "",
          "type": "uint256"
        }
      ],
      "stateMutability": "nonpayable",
      "type": "function"
    },
    {
      "inputs": [],
      "name": "owner",
      "outputs": [
        {
          "internalType": "address",
          "name": "",
          "type": "address"
        }
      ],
      "stateMutability": "view",
      "type": "function"
    },
    {
      "inputs": [],
      "name": "renounceOwnership",
      "outputs": [],
      "stateMutability": "nonpayable",
      "type": "function"
    },
    {
      "inputs": [
        {
          "internalType": "uint256",
          "name": "amount",
          "type": "uint256"
        },
        {
          "internalType": "address",
          "name": "onBehalfOf",
          "type": "address"
        }
      ],
      "name": "supply",
      "outputs": [],
      "stateMutability": "nonpayable",
      "type": "function"
    },
    {
      "inputs": [],
      "name": "totalSupply",
      "outputs": [
        {
          "internalType": "uint256",
          "name": "",
          "type": "uint256"
        }
      ],
      "stateMutability": "view",
      "type": "function"
    },
    {
      "inputs": [
        {
          "internalType": "address",
          "name": "newOwner",
          "type": "address"
        }
      ],
      "name": "transferOwnership",
      "outputs": [],
      "stateMutability": "nonpayable",
      "type": "function"
    },
    {
      "inputs": [
        {
          "internalType": "address",
          "name": "",
          "type": "address"
        }
      ],
      "name": "userSupplies",
      "outputs": [
        {
          "internalType": "uint256",
          "name": "",
          "type": "uint256"
        }
      ],
      "stateMutability": "view",
      "type": "function"
    },
    {
      "inputs": [
        {
          "internalType": "uint256",
          "name": "amount",
          "type": "uint256"
        },
        {
          "internalType": "address",
          "name": "to",
          "type": "address"
        }
      ],
      "name": "withdraw",
      "outputs": [
        {
          "internalType": "uint256",
          "name": "",
          "type": "uint256"
        }
      ],
      "stateMutability": "nonpayable",
      "type": "function"
    }
  ],
  "transactionHash": "0xec91b86b3d5ddaf6d00bd2078b76b43eb501ddd8336270fd51228294f3d8ff92",
  "args": [
    "0xaE742c7414937A43177bD1bF9cDBFCaF1a6E2Ccb"
  ],
  "numDeployments": 1,
  "solcInputHash": "a39913d170497548879ccc8028c9f0b5",
  "bytecode": "0x60a060405234801561001057600080fd5b50604051610f16380380610f1683398101604081905261002f91610117565b338061005657604051631e4fbdf760e01b8152600060048201526024015b60405180910390fd5b61005f816100c7565b506001600160a01b0381166100b65760405162461bcd60e51b815260206004820152601560248201527f496e76616c696420617373657420616464726573730000000000000000000000604482015260640161004d565b6001600160a01b0316608052610147565b600080546001600160a01b038381166001600160a01b0319831681178455604051919092169283917f8be0079c531659141344cd1fd0a4f28419497f9722a3daafe3b4186f6b6457e09190a35050565b60006020828403121561012957600080fd5b81516001600160a01b038116811461014057600080fd5b9392505050565b608051610d8a61018c6000396000818161014a01528181610353015281816104630152818161058c015281816106e4015281816108070152610a850152610d8a6000f3fe608060405234801561001057600080fd5b50600436106100e95760003560e01c80636e07302b1161008c578063ada0e5f111610066578063ada0e5f1146101e3578063c54175a3146101f6578063f2fde38b14610209578063fcdfd5c51461021c57600080fd5b80636e07302b146101c2578063715018a6146101ca5780638da5cb5b146101d257600080fd5b80632843594f116100c85780632843594f1461013d57806338d52e0f146101455780635236908b14610184578063674032b8146101ad57600080fd5b8062f714ce146100ee5780630ad3d9b81461011457806318160ddd14610134575b600080fd5b6101016100fc366004610c10565b610225565b6040519081526020015b60405180910390f35b610101610122366004610c3c565b60016020526000908152604090205481565b61010160025481565b610101610441565b61016c7f000000000000000000000000000000000000000000000000000000000000000081565b6040516001600160a01b03909116815260200161010b565b610101610192366004610c3c565b6001600160a01b031660009081526001602052604090205490565b6101c06101bb366004610c10565b6104f4565b005b6101016106cc565b6101c061075c565b6000546001600160a01b031661016c565b6101c06101f1366004610c5e565b610770565b610101610204366004610c3c565b61095f565b6101c0610217366004610c3c565b610b3e565b61010160035481565b600080831161024f5760405162461bcd60e51b815260040161024690610c77565b60405180910390fd5b6001600160a01b03821661029a5760405162461bcd60e51b8152602060048201526012602482015271496e76616c696420746f206164647265737360701b6044820152606401610246565b336000908152600160205260409020548311156102f05760405162461bcd60e51b8152602060048201526014602482015273496e73756666696369656e742062616c616e636560601b6044820152606401610246565b336000908152600160205260408120805485929061030f908490610cc4565b9250508190555082600260008282546103289190610cc4565b909155505060405163a9059cbb60e01b81526001600160a01b038381166004830152602482018590527f0000000000000000000000000000000000000000000000000000000000000000169063a9059cbb906044016020604051808303816000875af115801561039c573d6000803e3d6000fd5b505050506040513d601f19601f820116820180604052508101906103c09190610cd7565b6103fe5760405162461bcd60e51b815260206004820152600f60248201526e151c985b9cd9995c8819985a5b1959608a1b6044820152606401610246565b6040805184815242602082015233917ff279e6a1f5e320cca91135676d9cb6e44ca8a08c0b88342bcdb1144f6511b568910160405180910390a250815b92915050565b6040516370a0823160e01b815230600482015260009081906001600160a01b037f000000000000000000000000000000000000000000000000000000000000000016906370a0823190602401602060405180830381865afa1580156104aa573d6000803e3d6000fd5b505050506040513d601f19601f820116820180604052508101906104ce9190610cf9565b905060025481116104e157600091505090565b6002546104ee9082610cc4565b91505090565b600082116105145760405162461bcd60e51b815260040161024690610c77565b6001600160a01b03811661056a5760405162461bcd60e51b815260206004820152601a60248201527f496e76616c6964206f6e426568616c664f6620616464726573730000000000006044820152606401610246565b6040516323b872dd60e01b8152336004820152306024820152604481018390527f00000000000000000000000000000000000000000000000000000000000000006001600160a01b0316906323b872dd906064016020604051808303816000875af11580156105dd573d6000803e3d6000fd5b505050506040513d601f19601f820116820180604052508101906106019190610cd7565b61063f5760405162461bcd60e51b815260206004820152600f60248201526e151c985b9cd9995c8819985a5b1959608a1b6044820152606401610246565b6001600160a01b03811660009081526001602052604081208054849290610667908490610d12565b9250508190555081600260008282546106809190610d12565b9091555050604080518381524260208201526001600160a01b038316917f9d624b01705090e0c402c84f2bdef9c498399a009cee9a4e08ab004bae447121910160405180910390a25050565b6040516370a0823160e01b81523060048201526000907f00000000000000000000000000000000000000000000000000000000000000006001600160a01b0316906370a0823190602401602060405180830381865afa158015610733573d6000803e3d6000fd5b505050506040513d601f19601f820116820180604052508101906107579190610cf9565b905090565b610764610b7c565b61076e6000610ba9565b565b610778610b7c565b600081116107985760405162461bcd60e51b815260040161024690610c77565b6000600254116107ea5760405162461bcd60e51b815260206004820152601e60248201527f4e6f20737570706c7920746f2067656e6572617465207969656c64206f6e00006044820152606401610246565b604051306024820152604481018290526000906001600160a01b037f0000000000000000000000000000000000000000000000000000000000000000169060640160408051601f198184030181529181526020820180516001600160e01b03166340c10f1960e01b179052516108609190610d25565b6000604051808303816000865af19150503d806000811461089d576040519150601f19603f3d011682016040523d82523d6000602084013e6108a2565b606091505b505090508061090c5760405162461bcd60e51b815260206004820152603060248201527f5969656c64206d696e74206661696c6564202d20636865636b2061737365742060448201526f6d696e74207065726d697373696f6e7360801b6064820152608401610246565b816003600082825461091e9190610d12565b9091555050604080518381524260208201527f48eabbe005cc9847391758013fa6b6a12e9f6f1791556c8b4ebe723d153fc813910160405180910390a15050565b6000610969610b7c565b6000306001600160a01b0316632843594f6040518163ffffffff1660e01b8152600401602060405180830381865afa1580156109a9573d6000803e3d6000fd5b505050506040513d601f19601f820116820180604052508101906109cd9190610cf9565b905060008111610a145760405162461bcd60e51b81526020600482015260126024820152714e6f207969656c6420617661696c61626c6560701b6044820152606401610246565b6001600160a01b038316610a5f5760405162461bcd60e51b8152602060048201526012602482015271496e76616c696420746f206164647265737360701b6044820152606401610246565b60405163a9059cbb60e01b81526001600160a01b038481166004830152602482018390527f0000000000000000000000000000000000000000000000000000000000000000169063a9059cbb906044016020604051808303816000875af1158015610ace573d6000803e3d6000fd5b505050506040513d601f19601f82011682018060405250810190610af29190610cd7565b610b365760405162461bcd60e51b8152602060048201526015602482015274165a595b19081d1c985b9cd9995c8819985a5b1959605a1b6044820152606401610246565b90505b919050565b610b46610b7c565b6001600160a01b038116610b7057604051631e4fbdf760e01b815260006004820152602401610246565b610b7981610ba9565b50565b6000546001600160a01b0316331461076e5760405163118cdaa760e01b8152336004820152602401610246565b600080546001600160a01b038381166001600160a01b0319831681178455604051919092169283917f8be0079c531659141344cd1fd0a4f28419497f9722a3daafe3b4186f6b6457e09190a35050565b80356001600160a01b0381168114610b3957600080fd5b60008060408385031215610c2357600080fd5b82359150610c3360208401610bf9565b90509250929050565b600060208284031215610c4e57600080fd5b610c5782610bf9565b9392505050565b600060208284031215610c7057600080fd5b5035919050565b6020808252601d908201527f416d6f756e74206d7573742062652067726561746572207468616e2030000000604082015260600190565b634e487b7160e01b600052601160045260246000fd5b8181038181111561043b5761043b610cae565b600060208284031215610ce957600080fd5b81518015158114610c5757600080fd5b600060208284031215610d0b57600080fd5b5051919050565b8082018082111561043b5761043b610cae565b6000825160005b81811015610d465760208186018101518583015201610d2c565b50600092019182525091905056fea264697066735822122011c8176ae5faa3811652f10f1676ffbecd82fe8eb6180778cfbda8833b5cac1264736f6c63430008140033",
  "devdoc": {
    "details": "Allows instant yield generation via adminAddYield for demo purposes",
    "errors": {
      "OwnableInvalidOwner(address)": [
        {
          "details": "The owner is not a valid owner account. (eg. `address(0)`)"
        }
      ],
      "OwnableUnauthorizedAccount(address)": [
        {
          "details": "The caller account is not authorized to perform an operation."
        }
      ]
    },
    "kind": "dev",
    "methods": {
      "adminAddYield(uint256)": {
        "details": "Mints new tokens to simulate yield generation",
        "params": {
          "amount": "Amount of yield to add"
        }
      },
      "constructor": {
        "params": {
          "_asset": "Address of the asset token (USDC)"
        }
      },
      "getAvailableYield()": {
        "returns": {
          "_0": "Available yield amount"
        }
      },
      "getTotalAssets()": {
        "returns": {
          "_0": "Total assets"
        }
      },
      "getUserSupply(address)": {
        "params": {
          "user": "Address to check"
        },
        "returns": {
          "_0": "User's supply balance"
        }
      },
      "harvestYield(address)": {
        "params": {
          "to": "Address to send yield to"
        },
        "returns": {
          "_0": "Yield amount harvested"
        }
      },
      "owner()": {
        "details": "Returns the address of the current owner."
      },
      "renounceOwnership()": {
        "details": "Leaves the contract without owner. It will not be possible to call `onlyOwner` functions. Can only be called by the current owner. NOTE: Renouncing ownership will leave the contract without an owner, thereby disabling any functionality that is only available to the owner."
      },
      "supply(uint256,address)": {
        "params": {
          "amount": "Amount of assets to supply",
          "onBehalfOf": "Address to credit the supply to"
        }
      },
      "transferOwnership(address)": {
        "details": "Transfers ownership of the contract to a new account (`newOwner`). Can only be called by the current owner."
      },
      "withdraw(uint256,address)": {
        "params": {
          "amount": "Amount of assets to withdraw",
          "to": "Address to send the assets to"
        },
        "returns": {
          "_0": "Amount actually withdrawn"
        }
      }
    },
    "title": "MockAavePool",
    "version": 1
  },
  "userdoc": {
    "kind": "user",
    "methods": {
      "adminAddYield(uint256)": {
        "notice": "Admin function to add yield instantly (for demo purposes)"
      },
      "constructor": {
        "notice": "Initialize MockAavePool"
      },
      "getAvailableYield()": {
        "notice": "Get available yield (total yield minus principal)"
      },
      "getTotalAssets()": {
        "notice": "Get total assets in pool (principal + yield)"
      },
      "getUserSupply(address)": {
        "notice": "Get user's supply balance"
      },
      "harvestYield(address)": {
        "notice": "Harvest yield (withdraw only the yield, keep principal)"
      },
      "supply(uint256,address)": {
        "notice": "Supply assets to the pool (simulates Aave supply)"
      },
      "withdraw(uint256,address)": {
        "notice": "Withdraw assets from the pool (simulates Aave withdraw)"
      }
    },
    "notice": "Mock Aave Pool for hackathon demo - simulates Aave V3 supply/withdraw functionality",
    "version": 1
  },
  "storageLayout": {
    "storage": [
      {
        "astId": 387,
        "contract": "contracts/MockAavePool.sol:MockAavePool",
        "label": "_owner",
        "offset": 0,
        "slot": "0",
        "type": "t_address"
      },
      {
        "astId": 17328,
        "contract": "contracts/MockAavePool.sol:MockAavePool",
        "label": "userSupplies",
        "offset": 0,
        "slot": "1",
        "type": "t_mapping(t_address,t_uint256)"
      },
      {
        "astId": 17330,
        "contract": "contracts/MockAavePool.sol:MockAavePool",
        "label": "totalSupply",
        "offset": 0,
        "slot": "2",
        "type": "t_uint256"
      },
      {
        "astId": 17332,
        "contract": "contracts/MockAavePool.sol:MockAavePool",
        "label": "accumulatedYield",
        "offset": 0,
        "slot": "3",
        "type": "t_uint256"
      }
    ],
    "types": {
      "t_address": {
        "encoding": "inplace",
        "label": "address",
        "numberOfBytes": "20"
      },
      "t_mapping(t_address,t_uint256)": {
        "encoding": "mapping",
        "key": "t_address",
        "label": "mapping(address => uint256)",
        "numberOfBytes": "32",
        "value": "t_uint256"
      },
      "t_uint256": {
        "encoding": "inplace",
        "label": "uint256",
        "numberOfBytes": "32"
      }
    }
  }
}