{
  "address": "0xb7C7Af8E4c6e13193ee38Ef776D2364d4E9E002C",
  "abi": [
    {
      "inputs": [],
      "stateMutability": "nonpayable",
      "type": "constructor"
    },
    {
      "inputs": [
        {
          "internalType": "address",
          "name": "owner",
          "type": "address"
        }
      ],
      "name": "OwnableInvalidOwner",
      "type": "error"
    },
    {
      "inputs": [
        {
          "internalType": "address",
          "name": "account",
          "type": "address"
        }
      ],
      "name": "OwnableUnauthorizedAccount",
      "type": "error"
    },
    {
      "anonymous": false,
      "inputs": [
        {
          "indexed": true,
          "internalType": "address",
          "name": "studentAddress",
          "type": "address"
        },
        {
          "indexed": false,
          "internalType": "uint256",
          "name": "amount",
          "type": "uint256"
        }
      ],
      "name": "FundingRecorded",
      "type": "event"
    },
    {
      "anonymous": false,
      "inputs": [
        {
          "indexed": true,
          "internalType": "address",
          "name": "previousOwner",
          "type": "address"
        },
        {
          "indexed": true,
          "internalType": "address",
          "name": "newOwner",
          "type": "address"
        }
      ],
      "name": "OwnershipTransferred",
      "type": "event"
    },
    {
      "anonymous": false,
      "inputs": [
        {
          "indexed": true,
          "internalType": "address",
          "name": "studentAddress",
          "type": "address"
        },
        {
          "indexed": false,
          "internalType": "string",
          "name": "name",
          "type": "string"
        },
        {
          "indexed": false,
          "internalType": "string",
          "name": "university",
          "type": "string"
        }
      ],
      "name": "StudentAdded",
      "type": "event"
    },
    {
      "anonymous": false,
      "inputs": [
        {
          "indexed": true,
          "internalType": "address",
          "name": "studentAddress",
          "type": "address"
        }
      ],
      "name": "StudentDeactivated",
      "type": "event"
    },
    {
      "anonymous": false,
      "inputs": [
        {
          "indexed": true,
          "internalType": "address",
          "name": "studentAddress",
          "type": "address"
        }
      ],
      "name": "StudentReactivated",
      "type": "event"
    },
    {
      "inputs": [
        {
          "internalType": "address",
          "name": "studentAddress",
          "type": "address"
        },
        {
          "internalType": "string",
          "name": "name",
          "type": "string"
        },
        {
          "internalType": "string",
          "name": "university",
          "type": "string"
        },
        {
          "internalType": "string",
          "name": "researchArea",
          "type": "string"
        }
      ],
      "name": "addStudent",
      "outputs": [],
      "stateMutability": "nonpayable",
      "type": "function"
    },
    {
      "inputs": [],
      "name": "allocationManager",
      "outputs": [
        {
          "internalType": "address",
          "name": "",
          "type": "address"
        }
      ],
      "stateMutability": "view",
      "type": "function"
    },
    {
      "inputs": [
        {
          "internalType": "address",
          "name": "studentAddress",
          "type": "address"
        }
      ],
      "name": "deactivateStudent",
      "outputs": [],
      "stateMutability": "nonpayable",
      "type": "function"
    },
    {
      "inputs": [],
      "name": "getActiveStudents",
      "outputs": [
        {
          "internalType": "address[]",
          "name": "",
          "type": "address[]"
        }
      ],
      "stateMutability": "view",
      "type": "function"
    },
    {
      "inputs": [],
      "name": "getAllStudents",
      "outputs": [
        {
          "internalType": "address[]",
          "name": "",
          "type": "address[]"
        }
      ],
      "stateMutability": "view",
      "type": "function"
    },
    {
      "inputs": [
        {
          "internalType": "address",
          "name": "studentAddress",
          "type": "address"
        }
      ],
      "name": "getStudent",
      "outputs": [
        {
          "components": [
            {
              "internalType": "address",
              "name": "wallet",
              "type": "address"
            },
            {
              "internalType": "string",
              "name": "name",
              "type": "string"
            },
            {
              "internalType": "string",
              "name": "university",
              "type": "string"
            },
            {
              "internalType": "string",
              "name": "researchArea",
              "type": "string"
            },
            {
              "internalType": "bool",
              "name": "isActive",
              "type": "bool"
            },
            {
              "internalType": "uint256",
              "name": "totalReceived",
              "type": "uint256"
            },
            {
              "internalType": "uint256",
              "name": "addedAt",
              "type": "uint256"
            }
          ],
          "internalType": "struct IStudentRegistry.Student",
          "name": "",
          "type": "tuple"
        }
      ],
      "stateMutability": "view",
      "type": "function"
    },
    {
      "inputs": [],
      "name": "getStudentCount",
      "outputs": [
        {
          "internalType": "uint256",
          "name": "",
          "type": "uint256"
        }
      ],
      "stateMutability": "view",
      "type": "function"
    },
    {
      "inputs": [
        {
          "internalType": "address",
          "name": "studentAddress",
          "type": "address"
        }
      ],
      "name": "isStudentActive",
      "outputs": [
        {
          "internalType": "bool",
          "name": "",
          "type": "bool"
        }
      ],
      "stateMutability": "view",
      "type": "function"
    },
    {
      "inputs": [],
      "name": "owner",
      "outputs": [
        {
          "internalType": "address",
          "name": "",
          "type": "address"
        }
      ],
      "stateMutability": "view",
      "type": "function"
    },
    {
      "inputs": [
        {
          "internalType": "address",
          "name": "studentAddress",
          "type": "address"
        }
      ],
      "name": "reactivateStudent",
      "outputs": [],
      "stateMutability": "nonpayable",
      "type": "function"
    },
    {
      "inputs": [
        {
          "internalType": "address",
          "name": "studentAddress",
          "type": "address"
        },
        {
          "internalType": "uint256",
          "name": "amount",
          "type": "uint256"
        }
      ],
      "name": "recordFunding",
      "outputs": [],
      "stateMutability": "nonpayable",
      "type": "function"
    },
    {
      "inputs": [
        {
          "internalType": "string",
          "name": "name",
          "type": "string"
        },
        {
          "internalType": "string",
          "name": "university",
          "type": "string"
        },
        {
          "internalType": "string",
          "name": "researchArea",
          "type": "string"
        },
        {
          "internalType": "string",
          "name": "studentId",
          "type": "string"
        },
        {
          "internalType": "uint256",
          "name": "academicAchievements",
          "type": "uint256"
        },
        {
          "internalType": "uint256",
          "name": "sportsAchievements",
          "type": "uint256"
        },
        {
          "internalType": "uint256",
          "name": "studentAchievements",
          "type": "uint256"
        }
      ],
      "name": "registerStudent",
      "outputs": [],
      "stateMutability": "nonpayable",
      "type": "function"
    },
    {
      "inputs": [],
      "name": "renounceOwnership",
      "outputs": [],
      "stateMutability": "nonpayable",
      "type": "function"
    },
    {
      "inputs": [
        {
          "internalType": "address",
          "name": "_allocationManager",
          "type": "address"
        }
      ],
      "name": "setAllocationManager",
      "outputs": [],
      "stateMutability": "nonpayable",
      "type": "function"
    },
    {
      "inputs": [
        {
          "internalType": "address",
          "name": "_studentSBT",
          "type": "address"
        }
      ],
      "name": "setStudentSBT",
      "outputs": [],
      "stateMutability": "nonpayable",
      "type": "function"
    },
    {
      "inputs": [],
      "name": "studentSBT",
      "outputs": [
        {
          "internalType": "address",
          "name": "",
          "type": "address"
        }
      ],
      "stateMutability": "view",
      "type": "function"
    },
    {
      "inputs": [
        {
          "internalType": "address",
          "name": "newOwner",
          "type": "address"
        }
      ],
      "name": "transferOwnership",
      "outputs": [],
      "stateMutability": "nonpayable",
      "type": "function"
    }
  ],
  "transactionHash": "0x2ad14eca9ba878dde3328fe97a160909c288e0de53ac35031bd522f133b8ec60",
  "args": [],
  "numDeployments": 1,
  "solcInputHash": "a39913d170497548879ccc8028c9f0b5",
  "bytecode": "0x608060405234801561001057600080fd5b50338061003757604051631e4fbdf760e01b81526000600482015260240160405180910390fd5b61004081610046565b50610096565b600080546001600160a01b038381166001600160a01b0319831681178455604051919092169283917f8be0079c531659141344cd1fd0a4f28419497f9722a3daafe3b4186f6b6457e09190a35050565b611b4f806100a56000396000f3fe608060405234801561001057600080fd5b506004361061010b5760003560e01c8063832df71c116100a2578063e1b042c611610071578063e1b042c61461021f578063e9e3092714610232578063f2fde38b1461023a578063f9a3ca8a1461024d578063fffa53aa1461026057600080fd5b8063832df71c146101c15780638da5cb5b146101d4578063ca8aa7c7146101f9578063cf9f49991461020c57600080fd5b80636b7b44d7116100de5780636b7b44d714610171578063715018a6146101915780637bd24ed8146101995780637be26277146101ac57600080fd5b8063095f7b89146101105780630a703136146101385780631c45edfc1461014d57806341e0c40714610160575b600080fd5b61012361011e366004611564565b610273565b60405190151581526020015b60405180910390f35b61014b610146366004611564565b6102bd565b005b61014b61015b366004611564565b61034d565b60025460405190815260200161012f565b61018461017f366004611564565b610444565b60405161012f91906115d6565b61014b6106d9565b61014b6101a736600461166e565b6106ed565b6101b4610803565b60405161012f9190611698565b61014b6101cf36600461172e565b61099b565b6000546001600160a01b03165b6040516001600160a01b03909116815260200161012f565b6004546101e1906001600160a01b031681565b61014b61021a36600461180f565b610eec565b61014b61022d366004611564565b6112b4565b6101b46113ab565b61014b610248366004611564565b61140d565b61014b61025b366004611564565b61144b565b6005546101e1906001600160a01b031681565b6001600160a01b03811660009081526003602052604081205460ff1661029b57506000919050565b506001600160a01b031660009081526001602052604090206004015460ff1690565b6102c56114cb565b6001600160a01b03811661032b5760405162461bcd60e51b815260206004820152602260248201527f496e76616c696420616c6c6f636174696f6e206d616e61676572206164647265604482015261737360f01b60648201526084015b60405180910390fd5b600480546001600160a01b0319166001600160a01b0392909216919091179055565b6103556114cb565b6001600160a01b03811660009081526003602052604090205460ff1661038d5760405162461bcd60e51b8152600401610322906118ba565b6001600160a01b03811660009081526001602052604090206004015460ff166103f85760405162461bcd60e51b815260206004820152601860248201527f53747564656e7420616c726561647920696e61637469766500000000000000006044820152606401610322565b6001600160a01b038116600081815260016020526040808220600401805460ff19169055517f962ba8a33dd1e010f48a7eb857f8371cdde7c5d0bc98681d1f63261c2cd8c8949190a250565b61048f6040518060e0016040528060006001600160a01b0316815260200160608152602001606081526020016060815260200160001515815260200160008152602001600081525090565b6001600160a01b03821660009081526003602052604090205460ff166104c75760405162461bcd60e51b8152600401610322906118ba565b6001600160a01b03808316600090815260016020818152604092839020835160e0810190945280549094168352908301805492939291840191610509906118e5565b80601f0160208091040260200160405190810160405280929190818152602001828054610535906118e5565b80156105825780601f1061055757610100808354040283529160200191610582565b820191906000526020600020905b81548152906001019060200180831161056557829003601f168201915b5050505050815260200160028201805461059b906118e5565b80601f01602080910402602001604051908101604052809291908181526020018280546105c7906118e5565b80156106145780601f106105e957610100808354040283529160200191610614565b820191906000526020600020905b8154815290600101906020018083116105f757829003601f168201915b5050505050815260200160038201805461062d906118e5565b80601f0160208091040260200160405190810160405280929190818152602001828054610659906118e5565b80156106a65780601f1061067b576101008083540402835291602001916106a6565b820191906000526020600020905b81548152906001019060200180831161068957829003601f168201915b5050509183525050600482015460ff16151560208201526005820154604082015260069091015460609091015292915050565b6106e16114cb565b6106eb60006114f8565b565b6004546001600160a01b031633146107595760405162461bcd60e51b815260206004820152602960248201527f4f6e6c7920416c6c6f636174696f6e4d616e616765722063616e207265636f72604482015268642066756e64696e6760b81b6064820152608401610322565b6001600160a01b03821660009081526003602052604090205460ff166107915760405162461bcd60e51b8152600401610322906118ba565b6001600160a01b038216600090815260016020526040812060050180548392906107bc908490611935565b90915550506040518181526001600160a01b038316907f863dfe2219463edb84cb5f3410fe5cbeaad169d274e54acbf5d957955930a0629060200160405180910390a25050565b60606000805b60025481101561087a57600160006002838154811061082a5761082a61194e565b60009182526020808320909101546001600160a01b0316835282019290925260400190206004015460ff1615610868578161086481611964565b9250505b8061087281611964565b915050610809565b5060008167ffffffffffffffff8111156108965761089661197d565b6040519080825280602002602001820160405280156108bf578160200160208202803683370190505b5090506000805b6002548110156109925760016000600283815481106108e7576108e761194e565b60009182526020808320909101546001600160a01b0316835282019290925260400190206004015460ff1615610980576002818154811061092a5761092a61194e565b9060005260206000200160009054906101000a90046001600160a01b031683838151811061095a5761095a61194e565b6001600160a01b03909216602092830291909101909101528161097c81611964565b9250505b8061098a81611964565b9150506108c6565b50909392505050565b3360008181526003602052604090205460ff16156109fb5760405162461bcd60e51b815260206004820152601a60248201527f53747564656e7420616c726561647920726567697374657265640000000000006044820152606401610322565b8a610a3f5760405162461bcd60e51b81526020600482015260146024820152734e616d652063616e6e6f7420626520656d70747960601b6044820152606401610322565b88610a8c5760405162461bcd60e51b815260206004820152601a60248201527f556e69766572736974792063616e6e6f7420626520656d7074790000000000006044820152606401610322565b86610ad95760405162461bcd60e51b815260206004820152601d60248201527f526573656172636820617265612063616e6e6f7420626520656d7074790000006044820152606401610322565b84610b265760405162461bcd60e51b815260206004820152601a60248201527f53747564656e742049442063616e6e6f7420626520656d7074790000000000006044820152606401610322565b600a841115610b775760405162461bcd60e51b815260206004820152601c60248201527f41636164656d696320616368696576656d656e7473206d6178203130000000006044820152606401610322565b600a831115610bc85760405162461bcd60e51b815260206004820152601a60248201527f53706f72747320616368696576656d656e7473206d61782031300000000000006044820152606401610322565b600a821115610c195760405162461bcd60e51b815260206004820152601b60248201527f53747564656e7420616368696576656d656e7473206d617820313000000000006044820152606401610322565b6040518060e00160405280826001600160a01b031681526020018d8d8080601f016020809104026020016040519081016040528093929190818152602001838380828437600092019190915250505090825250604080516020601f8e018190048102820181019092528c815291810191908d908d9081908401838280828437600092019190915250505090825250604080516020601f8c018190048102820181019092528a815291810191908b908b908190840183828082843760009201829052509385525050600160208085018290526040808601859052426060909601959095526001600160a01b03878116855282825294909320855181546001600160a01b03191695169490941784559184015191830191610d399150826119e2565b5060408201516002820190610d4e90826119e2565b5060608201516003820190610d6390826119e2565b50608082015160048201805491151560ff1992831617905560a0830151600583015560c0909201516006909101556002805460018181019092557f405787fa12a823e0f2b7631cc41b3ba8828b3321ca811111fa75cd3aa3bb5ace0180546001600160a01b0385166001600160a01b03199091168117909155600081815260036020526040908190208054909416909217909255517ff483bf0ff5bb9af8263df65c6f48b46ea4251984650c8363b4e998616f83524490610e2b908f908f908f908f90611acb565b60405180910390a26005546001600160a01b031615610ede576005546040516001600160a01b038381166024830152600092169060440160408051601f198184030181529181526020820180516001600160e01b03166335313c2160e11b17905251610e979190611afd565b6000604051808303816000865af19150503d8060008114610ed4576040519150601f19603f3d011682016040523d82523d6000602084013e610ed9565b606091505b505050505b505050505050505050505050565b610ef46114cb565b6001600160a01b038716610f4a5760405162461bcd60e51b815260206004820152601760248201527f496e76616c69642073747564656e7420616464726573730000000000000000006044820152606401610322565b6001600160a01b03871660009081526003602052604090205460ff1615610fb35760405162461bcd60e51b815260206004820152601a60248201527f53747564656e7420616c726561647920726567697374657265640000000000006044820152606401610322565b84610ff75760405162461bcd60e51b81526020600482015260146024820152734e616d652063616e6e6f7420626520656d70747960601b6044820152606401610322565b826110445760405162461bcd60e51b815260206004820152601a60248201527f556e69766572736974792063616e6e6f7420626520656d7074790000000000006044820152606401610322565b806110915760405162461bcd60e51b815260206004820152601d60248201527f526573656172636820617265612063616e6e6f7420626520656d7074790000006044820152606401610322565b6040518060e00160405280886001600160a01b0316815260200187878080601f016020809104026020016040519081016040528093929190818152602001838380828437600092019190915250505090825250604080516020601f880181900481028201810190925286815291810191908790879081908401838280828437600092019190915250505090825250604080516020601f86018190048102820181019092528481529181019190859085908190840183828082843760009201829052509385525050600160208085018290526040808601859052426060909601959095526001600160a01b038d8116855282825294909320855181546001600160a01b031916951694909417845591840151918301916111b19150826119e2565b50604082015160028201906111c690826119e2565b50606082015160038201906111db90826119e2565b50608082015160048201805491151560ff1992831617905560a0830151600583015560c0909201516006909101556002805460018181019092557f405787fa12a823e0f2b7631cc41b3ba8828b3321ca811111fa75cd3aa3bb5ace0180546001600160a01b038b166001600160a01b03199091168117909155600081815260036020526040908190208054909416909217909255517ff483bf0ff5bb9af8263df65c6f48b46ea4251984650c8363b4e998616f835244906112a3908990899089908990611acb565b60405180910390a250505050505050565b6112bc6114cb565b6001600160a01b03811660009081526003602052604090205460ff166112f45760405162461bcd60e51b8152600401610322906118ba565b6001600160a01b03811660009081526001602052604090206004015460ff16156113595760405162461bcd60e51b815260206004820152601660248201527553747564656e7420616c72656164792061637469766560501b6044820152606401610322565b6001600160a01b0381166000818152600160208190526040808320600401805460ff1916909217909155517fffae4902c5def599b7a72f08bceef6cb94b655346104ca5f353dd5819a6ae7499190a250565b6060600280548060200260200160405190810160405280929190818152602001828054801561140357602002820191906000526020600020905b81546001600160a01b031681526001909101906020018083116113e5575b5050505050905090565b6114156114cb565b6001600160a01b03811661143f57604051631e4fbdf760e01b815260006004820152602401610322565b611448816114f8565b50565b6114536114cb565b6001600160a01b0381166114a95760405162461bcd60e51b815260206004820152601a60248201527f496e76616c69642053747564656e7453425420616464726573730000000000006044820152606401610322565b600580546001600160a01b0319166001600160a01b0392909216919091179055565b6000546001600160a01b031633146106eb5760405163118cdaa760e01b8152336004820152602401610322565b600080546001600160a01b038381166001600160a01b0319831681178455604051919092169283917f8be0079c531659141344cd1fd0a4f28419497f9722a3daafe3b4186f6b6457e09190a35050565b80356001600160a01b038116811461155f57600080fd5b919050565b60006020828403121561157657600080fd5b61157f82611548565b9392505050565b60005b838110156115a1578181015183820152602001611589565b50506000910152565b600081518084526115c2816020860160208601611586565b601f01601f19169290920160200192915050565b602080825282516001600160a01b03168282015282015160e060408301526000906116056101008401826115aa565b90506040840151601f198085840301606086015261162383836115aa565b925060608601519150808584030160808601525061164182826115aa565b9150506080840151151560a084015260a084015160c084015260c084015160e08401528091505092915050565b6000806040838503121561168157600080fd5b61168a83611548565b946020939093013593505050565b6020808252825182820181905260009190848201906040850190845b818110156116d95783516001600160a01b0316835292840192918401916001016116b4565b50909695505050505050565b60008083601f8401126116f757600080fd5b50813567ffffffffffffffff81111561170f57600080fd5b60208301915083602082850101111561172757600080fd5b9250929050565b600080600080600080600080600080600060e08c8e03121561174f57600080fd5b67ffffffffffffffff808d35111561176657600080fd5b6117738e8e358f016116e5565b909c509a5060208d013581101561178957600080fd5b6117998e60208f01358f016116e5565b909a50985060408d01358110156117af57600080fd5b6117bf8e60408f01358f016116e5565b909850965060608d01358110156117d557600080fd5b506117e68d60608e01358e016116e5565b9b9e9a9d50989b979a969995989760808101359660a0820135965060c090910135945092505050565b60008060008060008060006080888a03121561182a57600080fd5b61183388611548565b9650602088013567ffffffffffffffff8082111561185057600080fd5b61185c8b838c016116e5565b909850965060408a013591508082111561187557600080fd5b6118818b838c016116e5565b909650945060608a013591508082111561189a57600080fd5b506118a78a828b016116e5565b989b979a50959850939692959293505050565b60208082526011908201527014dd1d59195b9d081b9bdd08199bdd5b99607a1b604082015260600190565b600181811c908216806118f957607f821691505b60208210810361191957634e487b7160e01b600052602260045260246000fd5b50919050565b634e487b7160e01b600052601160045260246000fd5b808201808211156119485761194861191f565b92915050565b634e487b7160e01b600052603260045260246000fd5b6000600182016119765761197661191f565b5060010190565b634e487b7160e01b600052604160045260246000fd5b601f8211156119dd57600081815260208120601f850160051c810160208610156119ba5750805b601f850160051c820191505b818110156119d9578281556001016119c6565b5050505b505050565b815167ffffffffffffffff8111156119fc576119fc61197d565b611a1081611a0a84546118e5565b84611993565b602080601f831160018114611a455760008415611a2d5750858301515b600019600386901b1c1916600185901b1785556119d9565b600085815260208120601f198616915b82811015611a7457888601518255948401946001909101908401611a55565b5085821015611a925787850151600019600388901b60f8161c191681555b5050505050600190811b01905550565b81835281816020850137506000828201602090810191909152601f909101601f19169091010190565b604081526000611adf604083018688611aa2565b8281036020840152611af2818587611aa2565b979650505050505050565b60008251611b0f818460208701611586565b919091019291505056fea26469706673582212203d277cfffb9457357ad29687f3af63e905f5ebb0b999c8f682c4ba24c4790c5f64736f6c63430008140033",
  "devdoc": {
    "details": "Only owner (admin) can add/deactivate students, AllocationManager records funding",
    "errors": {
      "OwnableInvalidOwner(address)": [
        {
          "details": "The owner is not a valid owner account. (eg. `address(0)`)"
        }
      ],
      "OwnableUnauthorizedAccount(address)": [
        {
          "details": "The caller account is not authorized to perform an operation."
        }
      ]
    },
    "kind": "dev",
    "methods": {
      "addStudent(address,string,string,string)": {
        "params": {
          "name": "Student's full name",
          "researchArea": "Field of research",
          "studentAddress": "Student's wallet address",
          "university": "University or institution"
        }
      },
      "deactivateStudent(address)": {
        "params": {
          "studentAddress": "Student's wallet address"
        }
      },
      "getActiveStudents()": {
        "returns": {
          "_0": "Array of active student addresses"
        }
      },
      "getAllStudents()": {
        "returns": {
          "_0": "Array of all student addresses"
        }
      },
      "getStudent(address)": {
        "params": {
          "studentAddress": "Student's wallet address"
        },
        "returns": {
          "_0": "Student struct with all profile data"
        }
      },
      "getStudentCount()": {
        "returns": {
          "_0": "Number of students"
        }
      },
      "isStudentActive(address)": {
        "params": {
          "studentAddress": "Student's wallet address"
        },
        "returns": {
          "_0": "Boolean indicating if student is active"
        }
      },
      "owner()": {
        "details": "Returns the address of the current owner."
      },
      "reactivateStudent(address)": {
        "params": {
          "studentAddress": "Student's wallet address"
        }
      },
      "recordFunding(address,uint256)": {
        "details": "Can only be called by AllocationManager during distribution",
        "params": {
          "amount": "Amount of USDC received",
          "studentAddress": "Student's wallet address"
        }
      },
      "registerStudent(string,string,string,string,uint256,uint256,uint256)": {
        "params": {
          "academicAchievements": "Number of academic achievements (0-10)",
          "name": "Student's full name",
          "researchArea": "Field of research (can be faculty/career)",
          "sportsAchievements": "Number of sports achievements (0-10)",
          "studentAchievements": "Number of student achievements (0-10)",
          "studentId": "Student ID or enrollment number",
          "university": "University or institution"
        }
      },
      "renounceOwnership()": {
        "details": "Leaves the contract without owner. It will not be possible to call `onlyOwner` functions. Can only be called by the current owner. NOTE: Renouncing ownership will leave the contract without an owner, thereby disabling any functionality that is only available to the owner."
      },
      "setAllocationManager(address)": {
        "params": {
          "_allocationManager": "Address of AllocationManager contract"
        }
      },
      "setStudentSBT(address)": {
        "params": {
          "_studentSBT": "Address of StudentSBT contract"
        }
      },
      "transferOwnership(address)": {
        "details": "Transfers ownership of the contract to a new account (`newOwner`). Can only be called by the current owner."
      }
    },
    "title": "StudentRegistry",
    "version": 1
  },
  "userdoc": {
    "kind": "user",
    "methods": {
      "addStudent(address,string,string,string)": {
        "notice": "Add a new student to the registry"
      },
      "constructor": {
        "notice": "Initialize StudentRegistry"
      },
      "deactivateStudent(address)": {
        "notice": "Deactivate a student (stop accepting funding)"
      },
      "getActiveStudents()": {
        "notice": "Get all active student addresses"
      },
      "getAllStudents()": {
        "notice": "Get all registered student addresses"
      },
      "getStudent(address)": {
        "notice": "Get student profile by address"
      },
      "getStudentCount()": {
        "notice": "Get total number of registered students"
      },
      "isStudentActive(address)": {
        "notice": "Check if a student is active"
      },
      "reactivateStudent(address)": {
        "notice": "Reactivate a deactivated student"
      },
      "recordFunding(address,uint256)": {
        "notice": "Record funding received by a student"
      },
      "registerStudent(string,string,string,string,uint256,uint256,uint256)": {
        "notice": "Public function for students to register themselves"
      },
      "setAllocationManager(address)": {
        "notice": "Set the AllocationManager contract address"
      },
      "setStudentSBT(address)": {
        "notice": "Set the StudentSBT contract address"
      }
    },
    "notice": "Manages verified student profiles for the Endaoment platform",
    "version": 1
  },
  "storageLayout": {
    "storage": [
      {
        "astId": 387,
        "contract": "contracts/StudentRegistry.sol:StudentRegistry",
        "label": "_owner",
        "offset": 0,
        "slot": "0",
        "type": "t_address"
      },
      {
        "astId": 18109,
        "contract": "contracts/StudentRegistry.sol:StudentRegistry",
        "label": "students",
        "offset": 0,
        "slot": "1",
        "type": "t_mapping(t_address,t_struct(Student)20330_storage)"
      },
      {
        "astId": 18112,
        "contract": "contracts/StudentRegistry.sol:StudentRegistry",
        "label": "studentAddresses",
        "offset": 0,
        "slot": "2",
        "type": "t_array(t_address)dyn_storage"
      },
      {
        "astId": 18116,
        "contract": "contracts/StudentRegistry.sol:StudentRegistry",
        "label": "isRegistered",
        "offset": 0,
        "slot": "3",
        "type": "t_mapping(t_address,t_bool)"
      },
      {
        "astId": 18118,
        "contract": "contracts/StudentRegistry.sol:StudentRegistry",
        "label": "allocationManager",
        "offset": 0,
        "slot": "4",
        "type": "t_address"
      },
      {
        "astId": 18120,
        "contract": "contracts/StudentRegistry.sol:StudentRegistry",
        "label": "studentSBT",
        "offset": 0,
        "slot": "5",
        "type": "t_address"
      }
    ],
    "types": {
      "t_address": {
        "encoding": "inplace",
        "label": "address",
        "numberOfBytes": "20"
      },
      "t_array(t_address)dyn_storage": {
        "base": "t_address",
        "encoding": "dynamic_array",
        "label": "address[]",
        "numberOfBytes": "32"
      },
      "t_bool": {
        "encoding": "inplace",
        "label": "bool",
        "numberOfBytes": "1"
      },
      "t_mapping(t_address,t_bool)": {
        "encoding": "mapping",
        "key": "t_address",
        "label": "mapping(address => bool)",
        "numberOfBytes": "32",
        "value": "t_bool"
      },
      "t_mapping(t_address,t_struct(Student)20330_storage)": {
        "encoding": "mapping",
        "key": "t_address",
        "label": "mapping(address => struct IStudentRegistry.Student)",
        "numberOfBytes": "32",
        "value": "t_struct(Student)20330_storage"
      },
      "t_string_storage": {
        "encoding": "bytes",
        "label": "string",
        "numberOfBytes": "32"
      },
      "t_struct(Student)20330_storage": {
        "encoding": "inplace",
        "label": "struct IStudentRegistry.Student",
        "members": [
          {
            "astId": 20317,
            "contract": "contracts/StudentRegistry.sol:StudentRegistry",
            "label": "wallet",
            "offset": 0,
            "slot": "0",
            "type": "t_address"
          },
          {
            "astId": 20319,
            "contract": "contracts/StudentRegistry.sol:StudentRegistry",
            "label": "name",
            "offset": 0,
            "slot": "1",
            "type": "t_string_storage"
          },
          {
            "astId": 20321,
            "contract": "contracts/StudentRegistry.sol:StudentRegistry",
            "label": "university",
            "offset": 0,
            "slot": "2",
            "type": "t_string_storage"
          },
          {
            "astId": 20323,
            "contract": "contracts/StudentRegistry.sol:StudentRegistry",
            "label": "researchArea",
            "offset": 0,
            "slot": "3",
            "type": "t_string_storage"
          },
          {
            "astId": 20325,
            "contract": "contracts/StudentRegistry.sol:StudentRegistry",
            "label": "isActive",
            "offset": 0,
            "slot": "4",
            "type": "t_bool"
          },
          {
            "astId": 20327,
            "contract": "contracts/StudentRegistry.sol:StudentRegistry",
            "label": "totalReceived",
            "offset": 0,
            "slot": "5",
            "type": "t_uint256"
          },
          {
            "astId": 20329,
            "contract": "contracts/StudentRegistry.sol:StudentRegistry",
            "label": "addedAt",
            "offset": 0,
            "slot": "6",
            "type": "t_uint256"
          }
        ],
        "numberOfBytes": "224"
      },
      "t_uint256": {
        "encoding": "inplace",
        "label": "uint256",
        "numberOfBytes": "32"
      }
    }
  }
}